:020000020000FC
:100000002EC0189518951895189518951895189547
:1000100018951895189518951895189507C018955E
:100020001895189518950200600000000A930FB704
:100030000FBF09911895E0E6F0E0008111810F5F94
:100040001F4F00831183F7CF089517D0C250C80106
:10005000888399831C2F01E0F7DFFACFF6CF01EAFE
:100060000DBF00E00EBFC2E8D0E00AD0002309F0C7
:1000700016D0E1DF01D0F2CFF1CF9A938A930895A1
:1000800001E0089520E02D9301501040E1F708951C
:1000900024912D93319601501040D1F7089586E2B6
:1000A00090E0FC0105911491FC013296A591B49168
:1000B000FC01349625913491422F432B19F0F9011C
:1000C000E7DF01C0DFDF069610E08C32910748F3CE
:0200D000089591
:040000030000005E9B
:00000001FF
